:100000000C942A000C9447000C9447000C94470071
:100010000C9447000C9447000C9447000C94470044
:100020000C9447000C9447000C9447000C94470034
:100030000C9447000C9447000C9447000C94470024
:100040000C9447000C9447000C9447000C94470014
:100050000C94470011241FBECFE5D8E0DEBFCDBF12
:1000600010E0A0E6B0E0EEEBF7E002C005900D92E4
:10007000A43FB107D9F720E0A4EFB0E001C01D9282
:10008000AE3FB207E1F70E9471020C94DD030C94BD
:100090000000843080F5683070F5423060F521E072
:1000A00030E001C0220F6A95EAF78230B1F0833068
:1000B000E9F0813049F08AB3413019F4282B2ABB8A
:1000C000089520952823FBCF87B3413019F4282BBE
:1000D00027BB089520952823FBCF84B3413019F422
:1000E000282B24BB089520952823FBCF81B34130D2
:1000F00019F4282B21BB089520952823FBCF4130EC
:1001000091F018F0423029F10895E82FF0E0EE0F59
:10011000FF1FE059FF4F0190F081E02D8081609535
:1001200068236083089590E0880F991FFC01E059CF
:10013000FF4F0190F081E02D3081262F2095232361
:10014000208388599F4FDC01ED91FC918081682BC1
:10015000E8CFE82FF0E0EE0FFF1FE059FF4F0190CE
:10016000F081E02DF3CF442319F0413079F0089568
:10017000E82FF0E0EE0FFF1FE859FF4F0190F081EC
:10018000E02D80816095682360830895E82FF0E07A
:10019000EE0FFF1FE859FF4F0190F081E02D8081A5
:1001A000682BF2CFE82FF0E0EE0FFF1FE859FF4F6A
:1001B0000190F081E02D8081682760830895E82F09
:1001C000F0E0EE0FFF1FE05AFF4F0190F081E02DAD
:1001D0008081682319F4FA011082089581E0FA0100
:1001E00080830895FA01843098F4683088F4309759
:1001F00079F0823081F0833081F0813051F089B321
:1002000090E002C0959587956A95E2F781708083AA
:10021000089586B3F5CF83B3F3CF80B3F1CF20E455
:10022000829FC001112420E2629FB0011124862B1D
:1002300087B9406846B9089597B1907E97B997B14C
:10024000892B87B9369A349BFECF349A3D9B06C0E2
:1002500085B190E0FB0191838083089584B195B1CD
:10026000F9CFCF93C82F40E062E081E00E94B30055
:1002700040E064E081E00E94B300C4FB442740F901
:1002800060E181E00E94B300C5FB442740F960E2D1
:1002900081E00E94B300C6FB442740F960E481E09E
:1002A0000E94B3004C2F441F4427441F60E881E0A4
:1002B0000E94B30040E068E081E00E94B30087EC58
:1002C00090E00197F1F700C0000041E068E081E0B4
:1002D0000E94B3004C2F417060E181E00E94B300A6
:1002E000C1FB442740F960E281E00E94B300C2FBF9
:1002F000442740F960E481E00E94B300C3FB442737
:1003000040F960E881E00E94B30040E068E081E0ED
:100310000E94B30087EC90E00197F1F700C0000065
:1003200041E068E081E0CF910C94B300CF93C82FF7
:1003300041E062E081E00E94B30040E064E081E0DF
:100340000E94B300C4FB442740F960E181E00E94B1
:10035000B300C5FB442740F960E281E00E94B3008E
:10036000C6FB442740F960E481E00E94B3004C2FB3
:10037000441F4427441F60E881E00E94B30040E02E
:1003800068E081E00E94B30087EC90E00197F1F70C
:1003900000C0000041E068E081E00E94B3004C2F03
:1003A000417060E181E00E94B300C1FB442740F945
:1003B00060E281E00E94B300C2FB442740F960E4A0
:1003C00081E00E94B300C3FB442740F960E881E06C
:1003D0000E94B30040E068E081E00E94B30087EC37
:1003E00090E00197F1F700C0000041E068E081E093
:1003F000CF910C94B30042E06EE081E00E947F0058
:1004000042E060EF81E00E947F0041E068E081E02F
:100410000E94B3002FEF80E792E02150804090408F
:10042000E1F700C0000040E060E181E00E94B3001D
:1004300041E060E281E00E94B30040E060E481E0DE
:100440000E94B30040E060E881E00E94B30040E019
:1004500068E081E00E94B30087EC90E00197F1F73B
:1004600000C0000041E068E081E00E94B3008CE23F
:100470000E9431018FE99FE00197F1F700C0000071
:100480008FE00E9431018FE99FE00197F1F700C0F2
:10049000000081E00E9431018FE39FE10197F1F7B5
:1004A00000C0000086E00E9431018FE99FE00197C3
:1004B000F1F700C0000008950C949601CF93DF93EC
:1004C000EC018991811103C0DF91CF9108950E94C1
:1004D0009601F7CF6068862B0C94310181E00C9473
:1004E000310147E060E080E00E940F010E94FB01C3
:1004F00061E080E00E946A0288E790E00E945E026C
:100500002FEF43ED80E3215040408040E1F700C0F1
:10051000000061E080E00E946A0280E890E00E94B2
:100520005E029FEF23ED40E3915020404040E1F711
:1005300000C000000E946E028FEF93ED20E3815017
:1005400090402040E1F700C0000066EF70E080E0DE
:100550000E941C016CEF70E081E00E941C0168EFBA
:1005600070E082E00E941C0164EF70E083E00E9472
:100570001C016AEF70E084E00E941C018091F6008B
:100580009091F700811542E0940780F18091FC0082
:100590009091FD008115924068F28091F800909151
:1005A000F900811542E0940708F486C02091F40018
:1005B0003091F5002115324008F47EC02091FA00F8
:1005C0003091FB002115324008F476C067E080E0EE
:1005D0000E946A0280E990E00E945E028FEF93ED34
:1005E00020E3815090402040E1F7A2CF8F3F91401F
:1005F00009F4A0CF8091FC009091FD00811522E0CC
:10060000920708F4A6C08091F8009091F900811536
:1006100042E09407A8F02091F4003091F5002F3FBC
:10062000314070F42091FA003091FB0021153240E6
:1006300038F061E080E00E946A0288E990E0CCCF67
:10064000811542E09407A8F02091F4003091F50064
:100650002F3F314070F42091FA003091FB002F3F82
:10066000314038F461E080E00E946A0288EA90E05C
:10067000B3CF8F3F914008F05DCF8091F40090910F
:10068000F5008F3F914008F055CF8091FA0090918E
:10069000FB008F3F914008F04DCF61E080E00E9469
:1006A0006A0283EB90E00E945E0261E080E40E94B7
:1006B0006A028FEA90E090CF8F3F41E09407A8F460
:1006C0002091F4003091F5002F3F314070F42091DB
:1006D000FA003091FB002115324038F061E080E0F3
:1006E0000E946A0281EC90E077CF811542E0940786
:1006F000A8F02091F4003091F5002F3F314070F4C4
:100700002091FA003091FB002115324038F061E071
:1007100080E00E946A028DEC90E05ECF81159240ED
:1007200008F408CF8091F4009091F5008115924073
:1007300008F400CF8091FA009091FB008F3F914028
:1007400008F0F8CE61E080E00E946A0281ED90E05E
:1007500043CF8F3F914009F4EDCE8091F800909106
:10076000F9008F3F914008F0E5CE8091F400909120
:10077000F5008F3F914008F0DDCE8091FA00909116
:10078000FB008F3F914008F0D5CE61E080E00E94F1
:100790006A028BED90E00E945E0261E080E40E94BC
:1007A0006A0289EE90E00E945E024FEF83ED90E3D3
:0E07B000415080409040E1F7BBCEF894FFCF5F
:1007BE0039003600330030003B003800350032007F
:1007CE003A0037003400310077656C636F6D650059
:1007DE00666F7220646561662070656F706C65006F
:1007EE006E6F7468696E6700546861742773207445
:1007FE0065727269626C650049206C6F766520794E
:10080E006F750049207265616C79206C6F7665207A
:10081E00004920776174636820796F7500596F7590
:10082E0000476F6F6420776F726B00492077697392
:10083E006820796F75206120006861707079206C76
:04084E006966650072
:00000001FF
